:020000040000FA
:1010000054EF38F000436F6E7665727469646F72E6
:0B1010002041443A00253034750000F8
:10706C001200500EE82EFED712008A808A988A9A57
:10707C008A928A948A9C1200010EC26E0E0EC16E08
:10708C00BC0EC06E12000F0E016E000E026E000ED2
:10709C00036E000E046E1BEC39F0120000EE60F073
:1070AC002D0EEE6AE806FDE1000EF86E000128EFE9
:1070BC003AF0016E000E956E01C083FF8D808D92AB
:1070CC0037EC38F08D8437EC38F08D948D909568D2
:1070DC001200016E000E956E01C083FF8D928D9093
:1070EC0037EC38F08D8437EC38F08D9437EC38F081
:1070FC0095681200016E000E956E01508009836E2A
:10710C008D928D9037EC38F08D8437EC38F08D946F
:10711C0037EC38F095681200380E0FEC3CF0060E88
:10712C006FEC38F00F0E6FEC38F00E0E6FEC38F091
:10713C00050E026E100E036E80EC39F01200015039
:10714C000302F3CF05F0F4CF06F001500402F35024
:10715C00062602500302F350062605C001F006C0B5
:10716C0002F01200C282C2B2BEEF38F0C0EF38F0AB
:10717C00B9EF38F0C450C350030E026EF90E016E15
:10718C003BEC38F0030E046EF90E036E12008D8288
:10719C008D9037EC38F08D8437EC38F083AED9EF26
:1071AC0038F0DBEF38F0E0EF38F08D948D92010E73
:1071BC00E3EF38F08D948D92000E120001C003F0B5
:1071CC0002C004F0ECEF38F0014A022A01C0D9FFEA
:1071DC0002C0DAFFDF50D8A4F6EF38F0F8EF38F041
:1071EC00EAEF38F00350015C016E04500258026E55
:1071FC001200D00E036EFF0E046E01C005F002C02B
:10720C0006F0035005260450062206500AE10A0E29
:10721C00055CD8A014EF39F017EF39F0010E18EF18
:10722C0039F0000E016E026A120025EF39F0100ED3
:10723C00056E940EE82EFED7052EFCD700D0FF0E5F
:10724C000126FF0E0222FF0E0322FF0E042201284C
:10725C000AE1022808E1032806E10428D8A439EF42
:10726C0039F03BEF39F01DEF39F0120051EF39F0E6
:10727C00CDEC38F00009D8A446EF39F048EF39F0DE
:10728C003EEF39F002C0D9FF03C0DAFFDF505FECEC
:10729C0038F0024A032A02C0D9FF03C0DAFFDF50DC
:1072AC00D8A45BEF39F05DEF39F03EEF39F0120006
:1072BC00000E106E000E0F6E6FEF39F00EC001F065
:1072CC00026A0CC003F00DC004F0CAEC3AF00F4A8D
:1072DC00102A0F500A24D96E10500B20DA6EDF5092
:1072EC000E6E0E50D8A47DEF39F07FEF39F064EFBD
:1072FC0039F0120096EF39F0CDEC38F00009D8A433
:10730C008AEF39F08CEF39F082EF39F002C0F6FFDA
:10731C0003C0F7FF0800F5505FEC38F0024A032A6F
:10732C0002C0F6FF03C0F7FF0800F5500009D8A40F
:10733C00A2EF39F0A4EF39F082EF39F01200010E10
:10734C00076E200E01180210D8B4AFEF39F0B1EF70
:10735C0039F0CAEF39F0F70E036EFF0E046E01C060
:10736C0005F002C006F00350052604500622065014
:10737C0009E1050E055CD8A0C6EF39F0C8EF39F06D
:10738C00CAEF39F0000E076E07C001F0026A120056
:10739C005E0E00018F6F000E906F5AC091F05BC0B3
:1073AC0092F0000E946F000E936F000E966F000E0D
:1073BC00956F910E526E000E536E5CC054F05DC012
:1073CC0055F08F0E566E000E576EF7EC39F000012B
:1073DC0093515A24D96E94515B20DA6E000EDF6EF5
:1073EC00120054C058F055C059F0000E0001616FE6
:1073FC00000E606F15EF3AF052C03CF053C03DF0F8
:10740C00580E3E6E000E3F6E56C040F057C041F015
:10741C0056EC3EF03C50000160273D50612358C0B3
:10742C00F6FF59C0F7FF0800F5500009D8A421EF6A
:10743C003AF023EF3AF002EF3AF060C052F061C03C
:10744C0053F0120092EC38F042EC38F09590959293
:10745C009594959693909398939A93929394939CD6
:10746C008C908C928C948C968A908A988A9A8A9218
:10747C008A948A9C880E5A6E000E5B6E150E5C6E9A
:10748C00100E5D6EB8EC38F003C05EF004C05FF017
:10749C00CEEC39F0C50E6FEC38F0880E026E000E93
:1074AC00036E3CEC39F0C80E016E000E026E000E3D
:1074BC00036E000E046E1BEC39F040EF3AF000EF57
:1074CC0008F0000166A16DEF3AF06FEF3AF079EF3A
:1074DC003AF013C00AF014C00BF011C00CF012C03B
:1074EC000DF05EEC39F016BE7EEF3AF080EF3AF01C
:1074FC0086EF3AF015C01AF016C01BF08AEF3AF07E
:10750C00000E1B6E000E1A6E000E196E000E186E19
:10751C009CEF3AF0000E026E200E016E11C003F0CB
:10752C0012C004F0CAEC3AF0184A192A1A50185C26
:10753C001950800A176E1B50800A1758D8A0A9EF53
:10754C003AF0ABEF3AF090EF3AF0000166B1B1EFE0
:10755C003AF0B3EF3AF0BDEF3AF013C00AF014C0B2
:10756C000BF011C00CF012C00DF05EEC39F013C032
:10757C0001F014C002F0E4EC38F01A500124116E42
:10758C001B500220126E120003500410D8B4D1EF1D
:10759C003AF0D3EF3AF0DCEF3AF003500410D8A4F1
:1075AC00DAEF3AF0DCEF3AF0E1EF3AF0015036EC7A
:1075BC0038F02EEF3BF020EE04F00350D9260450A7
:1075CC00DA22DE50DE10D8B4EEEF3AF0F0EF3AF0FB
:1075DC000BEF3BF020EE04F00350D9260450DA22D6
:1075EC0010EE02F00350E1260450E222DE50E65C7D
:1075FC00E650800A096EDE50800A0958D8B009EFAF
:10760C003BF00BEF3BF02EEF3BF020EE02F0035083
:10761C00D9260450DA22DECF05F0DDCF06F003C008
:10762C00D9FF04C0DAFFDECF07F0DDCF08F005503C
:10763C000724D96E06500820DA6E01C0DFFF20EE59
:10764C0002F00350D9260450DA22DE2A000EDD2285
:10765C00120009500A100B100C100D100E100F1008
:10766C001010D8B43CEF3BF03EEF3BF086EF3BF014
:10767C00010E116E4CEF3BF0D89009360A360B36E2
:10768C000C360D360E360F361036112A10AE51EF61
:10769C003BF053EF3BF042EF3BF00950015C0A50DA
:1076AC0002580B5003580C5004580D5005580E50EE
:1076BC0006580F50075810500858D8A068EF3BF0E8
:1076CC006AEF3BF07AEF3BF00950015E0A50025A28
:1076DC000B50035A0C50045A0D50055A0E50065AB2
:1076EC000F50075A1050085AD89010320F320E32E1
:1076FC000D320C320B320A320932112E53EF3BF0A1
:10770C0001C001F002C002F003C003F004C004F099
:10771C0005C005F006C006F007C007F008C008F069
:10772C00120020EE11F0070EDE6AE806FDE20950A9
:10773C000A100B100C100D100E100F101010D8B4E6
:10774C00AAEF3BF0ACEF3BF0FEEF3BF0010E196EF5
:10775C00BAEF3BF0D89009360A360B360C360D369C
:10776C000E360F361036192A10AEBFEF3BF0C1EFB4
:10777C003BF0B0EF3BF0D89011361236133614367E
:10778C0015361636173618360950015C0A50025851
:10779C000B5003580C5004580D5005580E500658F9
:1077AC000F50075810500858D8A0DFEF3BF0E1EF0E
:1077BC003BF0F2EF3BF00950015E0A50025A0B50BD
:1077CC00035A0C50045A0D50055A0E50065A0F50BD
:1077DC00075A1050085A1180D89010320F320E32BE
:1077EC000D320C320B320A320932192EC1EF3BF03A
:1077FC0011C001F012C002F013C003F014C004F069
:10780C0015C005F016C006F017C007F018C008F038
:10781C001200076E000E836E000E956E9692969077
:10782C0096948D928D908D9449EC38F0300E6FECCF
:10783C0038F0410E066EEE0EE82EFED7062EFCD763
:10784C0000D0300E6FEC38F00D0E066EFC0EE82EEC
:10785C00FED7062EFCD7320E6FEC38F0CDEC38F09C
:10786C000009D8A43CEF3CF03EEF3CF034EF3CF088
:10787C00CDEC38F00009D8A446EF3CF048EF3CF0D2
:10788C003EEF3CF007506FEC38F0CDEC38F00009CF
:10789C00D8A453EF3CF055EF3CF04BEF3CF0080E06
:1078AC006FEC38F0CDEC38F00009D8A460EF3CF068
:1078BC0062EF3CF058EF3CF00F0E6FEC38F0CDEC73
:1078CC0038F00009D8A46DEF3CF06FEF3CF065EF99
:1078DC003CF0010E6FEC38F0CDEC38F00009D8A478
:1078EC007AEF3CF07CEF3CF072EF3CF0040E6FEC66
:1078FC0038F0CDEC38F00009D8A487EF3CF089EFD4
:10790C003CF07FEF3CF0800E80EC38F01200000E63
:10791C00166E000E156E000E0F6E000E0E6E99EFA9
:10792C003CF0084A092A010E146E08C0F6FF09C083
:10793C00F7FF0800F550200AD8B4A7EF3CF0A9EFE8
:10794C003CF0C6EF3CF0F70E0A6EFF0E0B6E08C053
:10795C00F6FF09C0F7FF0800F5500C6E0D6A0A50CF
:10796C000C260B500D220D5009E1050E0C5CD8A015
:10797C00C2EF3CF0C4EF3CF0C6EF3CF0000E146ECE
:10798C0014C010F0116A10501110D8A4D0EF3CF0B4
:10799C00D2EF3CF097EF3CF0DCEF3CF0000E0F6EBA
:1079AC00010E0E6E084A092A11EF3DF008C0F6FFD1
:1079BC0009C0F7FF0800F5500A6E0B6A0B50000A5D
:1079CC00D8B4EBEF3CF011EF3DF00A502B0AD8B4D1
:1079DC00D8EF3CF0060AD8B4D4EF3CF011EF3DF0F0
:1079EC0015C001F016C002F0000E046E0A0E036EF4
:1079FC00A5EC38F008C0F6FF09C0F7FF0800F550F9
:107A0C00015E000E025A300E0124156E000E02208B
:107A1C00166ED8EF3CF0D00E0A6EFF0E0B6E08C03F
:107A2C00F6FF09C0F7FF0800F5500C6E0D6A0A50FE
:107A3C000C260B500D220D500AE10A0E0C5CD8A03E
:107A4C002AEF3DF02DEF3DF0010E2EEF3DF0000E34
:107A5C00126E136A12501310D8A437EF3DF039EFA1
:107A6C003DF0F6EF3CF00E500F10D8A440EF3DF077
:107A7C0042EF3DF050EF3DF015C00AF016C00BF090
:107A8C000A1E0B1E0A4A0B2A0AC008F00BC009F08A
:107A9C0054EF3DF015C008F016C009F012000001BB
:107AAC0065BF5BEF3DF05DEF3DF05EEF3DF0669343
:107ABC0065BF6BEF3DF0655106E16405D8B069EF29
:107ACC003DF06BEF3DF071EF3DF0000E2F6E010EAF
:107ADC002E6E75EF3DF064C02EF065C02FF062C0C5
:107AEC0030F063C031F01EC032F01FC033F020C044
:107AFC0034F021C035F022C036F023C037F024C05A
:107B0C0038F025C039F0000E3B6E1F0E3A6E000E99
:107B1C00876F07EF3EF03A06D8A03B06680E3A2472
:107B2C00D96E000E3B20DA6E32C001F033C002F089
:107B3C0034C003F035C004F036C005F037C006F091
:107B4C0038C007F039C008F00A0E096E000E0A6E34
:107B5C00000E0B6E000E0C6E000E0D6E000E0E6EF7
:107B6C00000E0F6E000E106E2FEC3BF001C026F0D5
:107B7C0002C027F003C028F004C029F005C02AF089
:107B8C0006C02BF007C02CF008C02DF02650300F8B
:107B9C00DF6E2E06D8A02F063006D8A0310632C0D4
:107BAC0001F033C002F034C003F035C004F036C02D
:107BBC0005F037C006F038C007F039C008F00A0EDF
:107BCC00096E000E0A6E000E0B6E000E0C6E000E8F
:107BDC000D6E000E0E6E000E0F6E000E106E97ECFA
:107BEC003BF001C032F002C033F003C034F004C0EB
:107BFC0035F005C036F006C037F007C038F008C0C5
:107C0C0039F03A503B10D8B40EEF3EF010EF3EF086
:107C1C0041EF3EF03250331034103510361037101F
:107C2C0038103910D8A41DEF3EF01FEF3EF091EF45
:107C3C003DF02FBE2CEF3EF02F5006E12E04D8B0B5
:107C4C002AEF3EF02CEF3EF091EF3DF031BE37EFD6
:107C5C003EF0315008E13004D8A037EF3EF039EF58
:107C6C003EF041EF3EF0000166B33FEF3EF041EFD6
:107C7C003EF091EF3DF01CC011F01DC012F0680EEB
:107C8C003A24136E000E3B20146E30C015F031C038
:107C9C0016F067EC3AF011C01CF012C01DF0120087
:107CAC003EC0D9FF3FC0DAFFDECFF6FFDDCFF7FFD6
:107CBC000800F550250AD8A466EF3EF068EF3EF0B8
:107CCC00E4EF3FF03EC0D9FF3FC0DAFFDE2A000EE2
:107CDC00DD22000E0001636F000E626F62C066F061
:107CEC0063C067F064696569000E4F6E000E4E6EDE
:107CFC00CBEF3EF0000166813EC0D9FF3FC0DAFFFA
:107D0C00DE2A000EDD22CBEF3EF00001668382EF0F
:107D1C003EF00001668582EF3EF00001668782EF3F
:107D2C003EF00001668982EF3EF0000E4F6E010EB0
:107D3C004E6ECBEF3EF03EC0D9FF3FC0DAFFDECF38
:107D4C00F6FFDDCFF7FF0800F550426E436A435053
:107D5C00000AD8B4B4EF3EF09BEF3EF04250200A3C
:107D6C00D8B493EF3EF0030AD8B497EF3EF0080A6C
:107D7C00D8B48FEF3EF0060AD8B480EF3EF01D0A5F
:107D8C00D8B48BEF3EF09BEF3EF04E504F10D8B472
:107D9C00D2EF3EF0D4EF3EF0A1EF3EF0000166A131
:107DAC00DAEF3EF0DCEF3EF0DDEF3EF066933EC0E6
:107DBC00D9FF3FC0DAFFDECFF6FFDDCFF7FF0800BB
:107DCC00F5502A0AD8A4EDEF3EF0EFEF3EF018EF95
:107DDC003FF03EC0D9FF3FC0DAFFDE2A000EDD22A5
:107DEC0040C0D9FF41C0DAFFDFCF42F0020EDE26E1
:107DFC00DFCF43F0000EDD2242C0D9FF43C0DAFFD3
:107E0C00DECF62F0DDCF63F063BF11EF3FF00FEF19
:107E1C003FF05BEF3FF06681626D631FD8B0632B60
:107E2C005BEF3FF03EC0D9FF3FC0DAFFDECF08F07A
:107E3C00DDCF09F08DEC3CF008C062F009C063F0B6
:107E4C002FEF3FF03EC0D9FF3FC0DAFFDE2A000E15
:107E5C00DD22D00E426EFF0E436E3EC0D9FF3FC0F6
:107E6C00DAFFDECFF6FFDDCFF7FF0800F550446EEA
:107E7C00456A425044264350452245500AE10A0EB9
:107E8C00445CD8A04CEF3FF04FEF3FF0010E50EFA9
:107E9C003FF0000E506E516A50505110D8A459EF5B
:107EAC003FF05BEF3FF028EF3FF03EC0D9FF3FC003
:107EBC00DAFFDECFF6FFDDCFF7FF0800F550750ACD
:107ECC00D8A46BEF3FF06DEF3FF0AEEF3FF03EC04C
:107EDC00D9FF3FC0DAFFDE2A000EDD2240C0D9FFF9
:107EEC0041C0DAFFDFCF42F0020EDE26DFCF43F0D7
:107EFC00000EDD2242C0D9FF43C0DAFFDECF44F0D2
:107F0C00DDCF45F044C046F045C047F0486A496AA9
:107F1C004A6A4B6A4C6A4D6A3CC01CF03DC01DF06D
:107F2C0046C01EF047C01FF048C020F049C021F0E9
:107F3C004AC022F04BC023F04CC024F04DC025F0B9
:107F4C0055EC3DF01CC03CF01DC03DF0FFEF3FF088
:107F5C003EC0D9FF3FC0DAFFDECFF6FFDDCFF7FF23
:107F6C000800F550250AD8A4BEEF3FF0C0EF3FF053
:107F7C00D7EF3FF03EC0D9FF3FC0DAFFDE2A000E3C
:107F8C00DD22000E026E250E016E3CC003F03DC0DA
:107F9C0004F0CAEC3AF0000E3D6E010E3C6EFFEFA1
:107FAC003FF03EC0D9FF3FC0DAFFDE2A000EDD22D3
:107FBC00000E3D6E000E3C6EFFEF3FF03EC0D9FF51
:107FCC003FC0DAFFDECFF6FFDDCFF7FF0800F5503C
:107FDC00016E026A3CC003F03DC004F0CAEC3AF0FA
:107FEC003EC0D9FF3FC0DAFFDE2A000EDD22D1EF02
:047FFC003FF0120040
:020000040020DA
:08000000FFFFFFFFFFFFFFFF00
:020000040030CA
:0E000000240E3F1EFF8181FF0FC00FE00F4056
:00000001FF
