:020000040000FA
:0410000007EF08F0FE
:10100800058244ED08F072EF08F093889394959068
:101018008C80F28EF28AC30ED56E000ED76E640EE7
:10102800D66E81A81AEF08F01CEF08F02CEF08F034
:10103800050E01180210D8A424EF08F026EF08F0D6
:101048002CEF08F0000E026E000E016E15EF08F08E
:1010580081A831EF08F033EF08F015EF08F00150E0
:101068000210D8A43AEF08F03CEF08F015EF08F0AA
:10107800000E026E050E016E15EF08F007EF08F07E
:101088000600F2A44AEF08F04CEF08F070EF08F001
:10109800F294034A042A280E03180410D8A457EF20
:1010A80008F059EF08F05EEF08F0000E046E000E2D
:1010B800036E8A840150031807E102500418D8A46B
:1010C80068EF08F06AEF08F06BEF08F08A94000EFA
:1010D800D76E640ED66EF29405921100046A036A04
:0E10E800026A016A05900592000109EF08F006
:020000040020DA
:08000000FFFFFFFFFFFFFFFF00
:020000040030CA
:0E000000240E3F1EFF8181FF0FC00FE00F4056
:00000001FF
