:020000040000FA
:0400000007EF00F016
:10000800058243ED00F071EF00F0938093829394A2
:10001800F28EF28AC30ED56E000ED76E640ED66EBF
:1000280081A019EF00F01BEF00F02BEF00F0050E98
:1000380001180210D8B423EF00F025EF00F02BEFE1
:1000480000F0000E026E050E016E14EF00F081A2A2
:1000580030EF00F032EF00F014EF00F00150021022
:10006800D8B439EF00F03BEF00F014EF00F0000EC9
:10007800026E000E016E14EF00F007EF00F00600AC
:10008800F2A449EF00F04BEF00F06FEF00F0F294AC
:10009800034A042A280E03180410D8A456EF00F0C7
:1000A80058EF00F05DEF00F0000E046E000E036ED6
:1000B8008A840150031807E102500418D8A467EF96
:1000C80000F069EF00F06AEF00F08A94000ED76E36
:1000D800640ED66EF29405921100046A036A026AED
:0C00E800016A05900592000109EF00F08C
:020000040020DA
:08000000FFFFFFFFFFFFFFFF00
:020000040030CA
:0E000000240E3F1EFF8181FF0FC00FE00F4056
:00000001FF
