:020000040000FA
:10100000A2EF3EF000202020484F4C41204D554E8D
:10101000444F0020204144494F53204D554E444FEA
:021020000000CE
:107D3C00500EE82EFED71200000EF86E100EF76EE5
:107D4C000001C1EF3EF00F0E016E000E026E000E30
:107D5C00036E000E046EEDEC3EF01200280E83EC68
:107D6C003FF0060E25EC3FF00F0E25EC3FF00E0E0B
:107D7C0025EC3FF01200B4EC3EF0050E026E100E36
:107D8C00036ED3EC3EF0C00E25EC3FF0130E026EEA
:107D9C00100E036ED3EC3EF0FFD70FD008EC3FF083
:107DAC000009D8A4FBD702C0F6FF03C0F7FF0800F8
:107DBC00F55044EC3FF0024A032A02C0F6FF03C020
:107DCC00F7FF0800F5500009D8B41200E7D708D027
:107DDC00100E056E940EE82EFED7052EFCD700D0A3
:107DEC00FF0E0126FF0E0222FF0E0322FF0E0422BD
:107DFC000128EEE10228ECE10328EAE10428D8B4DA
:107E0C001200E6D78D828D909EEC3EF08D849EEC18
:107E1C003EF083AE0AD08D949EEC3EF08D849EECA9
:107E2C003EF08D948D92010E12008D949EEC3EF0DE
:107E3C008D849EEC3EF08D948D92000E1200016E9E
:107E4C000F0E95160F0E83160150F00B83128D92A8
:107E5C008D909EEC3EF08D849EEC3EF08D940F0E3A
:107E6C0083160138F00BF00B83129EEC3EF08D84E0
:107E7C009EEC3EF08D94F00E95121200016E0F0EDA
:107E8C0095160F0E83160150F00B83128D808D9278
:107E9C009EEC3EF08D849EEC3EF08D940F0E83167E
:107EAC000138F00BF00B83129EEC3EF08D849EECAF
:107EBC003EF08D94F00E95121200016E0F0E951679
:107ECC000F0E831601508009F00B83128D928D904A
:107EDC009EEC3EF08D849EEC3EF08D940F0E83163E
:107EEC000138F00BF00B83129EEC3EF08D849EEC6F
:107EFC003EF08D94F00E95121200076E0F0E831645
:107F0C000F0E95169692969096948D928D908D94C8
:107F1C00A9EC3EF0300E25EC3FF00D0E066EFC0E7B
:107F2C00E82EFED7062EFCD70D0E066EFC0EE82EA4
:107F3C00FED7062EFCD70D0E066EFC0EE82EFED7D5
:107F4C00062EFCD70D0E066EFC0EE82EFED7062E66
:107F5C00FCD70D0E066EFC0EE82EFED7062EFCD7B7
:107F6C000D0E066EFC0EE82EFED7062EFCD7300E3C
:107F7C0025EC3FF00D0E066EFC0EE82EFED7062EFD
:107F8C00FCD7320E25EC3FF008EC3FF00009D8A4EA
:107F9C00FBD708EC3FF00009D8A4FBD7075025EC21
:107FAC003FF008EC3FF00009D8A4FBD7080E25ECF5
:107FBC003FF008EC3FF00009D8A4FBD70F0E25ECDE
:107FCC003FF008EC3FF00009D8A4FBD7010E25ECDC
:107FDC003FF008EC3FF00009D8A4FBD7040E25ECC9
:107FEC003FF008EC3FF00009D8A4FBD7800E63ECFF
:047FFC003FF0120040
:020000040020DA
:08000000FFFFFFFFFFFFFFFF00
:020000040030CA
:0E000000240E3F1EFF8181FF0FC00FE00F4056
:00000001FF
