:020000040000FA
:10100000CCEF30F00000803F00204100C842007A61
:1010100044401C4650C34724744997184BBCBE4CEF
:101020006B6E4E03155079AD60F3497100803FCD72
:10103000CC3DD7233C12833AB7D138C62737388600
:1010400035C0D633CC2B32708930E7DB2EE53C1E21
:1010500042A20D010000000A00000064000000E848
:1010600003000010270000A086010040420F00800E
:1010700096980000E1F50500CA9A3B202020204404
:10108000697374616E6369613A00252E336620636B
:031090006D0000F0
:10616C00500EE82EFED71200010EC26E1E0EC16E2E
:10617C00BC0EC06E12000F0E016E000E026E000EF1
:10618C00036E000E046E6CEC31F012000001AD6B6E
:10619C00AC6BAB6BAA6BA96B000EF86E0001A8EF91
:1061AC003AF0280EF5EC35F0060EA4EC31F00F0E9B
:1061BC00A4EC31F00E0EA4EC31F01200036E000EC4
:1061CC00026E3A0E036005D02F0E036402D0010E4E
:1061DC00026E02C001F001301200C282C2B2FED7C0
:1061EC00C450046E036AC3500324056E000E0420D1
:1061FC00066E05C001F006C002F0120009C001F0E5
:10620C000AC002F0036A8E0E046E000E056ECEEC10
:10621C0033F001C009F002C00AF003C00BF0120009
:10622C00015002100310D8B406D0000E011A000E53
:10623C00021A800E031A01C001F002C002F003C062
:10624C0003F012000D500F02F3CF11F0F4CF12F047
:10625C000D501002F35012260E500F02F35012265E
:10626C0011C00DF012C00EF012000ED087EC31F000
:10627C000009D8A4FBD702C0D9FF03C0DAFFDF5056
:10628C00C3EC31F0024A032A02C0D9FF03C0DAFF83
:10629C00DF50D8B41200EAD70FD087EC31F00009E8
:1062AC00D8A4FBD702C0F6FF03C0F7FF0800F550D7
:1062BC00C3EC31F0024A032A02C0F6FF03C0F7FF19
:1062CC000800F5500009D8B41200E7D708D0100E1A
:1062DC00056E940EE82EFED7052EFCD700D0FF0ECF
:1062EC000126FF0E0222FF0E0322FF0E04220128BC
:1062FC00EEE10228ECE10328EAE10428D8B412000C
:10630C00E6D78D828D90B6EC30F08D84B6EC30F003
:10631C0083A60AD08D94B6EC30F08D84B6EC30F0B8
:10632C008D948D92010E12008D94B6EC30F08D840C
:10633C00B6EC30F08D948D92000E1200016EF00EC2
:10634C009516F00E831601380F0B0F0B83128D92DE
:10635C008D90B6EC30F08D84B6EC30F08D94F00E60
:10636C00831601500F0B8312B6EC30F08D84B6EC13
:10637C0030F08D940F0E95121200016EF00E9516E2
:10638C00F00E831601380F0B0F0B83128D808D923C
:10639C00B6EC30F08D84B6EC30F08D94F00E8316A4
:1063AC0001500F0B8312B6EC30F08D84B6EC30F04C
:1063BC008D940F0E951212003B503C103D10D8B42A
:1063CC0006D0000E3B1A000E3C1A800E3D1A38C047
:1063DC002CF039C02DF03AC02EF03BC02FF03CC051
:1063EC0030F03DC031F0F1EC36F02CC038F02DC05F
:1063FC0039F02EC03AF0120003500410D8B418D063
:10640C00010E056E04D0D89003360436052A04AE6E
:10641C00FAD70350015C04500258D8A004D00350A2
:10642C00015E0450025AD89004320332052EF1D783
:10643C0001C001F002C002F01200000E0B6E000E43
:10644C000A6E08500910D8B41CD0010E0C6E04D082
:10645C00D890083609360C2A09AEFAD7D8900A36E5
:10646C000B360850065C09500758D8A005D00850C8
:10647C00065E0950075A0A80D890093208320C2E51
:10648C00EDD70AC006F00BC007F01200046EF00E38
:10649C009516F00E83160450016E026A800E0112DE
:1064AC00000E0212040E036E023402320132032E6D
:1064BC00FBD701500F0B83128D928D90B6EC30F000
:1064CC008D84B6EC30F08D94F00E831604500F0BC7
:1064DC008312B6EC30F08D84B6EC30F08D940F0E48
:1064EC00951212008E0E116E06D0D8900C320B3213
:1064FC000A320932112A000E09140D6E000E0A140C
:10650C000E6E000E0B140F6EFF0E0C14106E0D5051
:10651C000E100F101010D8A4E8D709C001F00AC053
:10652C0002F00BC003F011C004F0000E056ECEECAF
:10653C0033F001C009F002C00AF003C00BF01200E6
:10654C000550061007100810D8B424D0010E096E9F
:10655C0006D0D8900536063607360836092A08AE16
:10656C00F8D70550015C06500258075003580850E4
:10657C000458D8A008D00550015E0650025A0750A6
:10658C00035A0850045AD8900832073206320532A2
:10659C00092EE7D701C001F002C002F003C003F0DE
:1065AC0004C004F01200000E066E02AE06D0016CA0
:1065BC00021ED8B0022A010E066E04AE04D0036C83
:1065CC00041ED8B0042A03500410D8B418D0010EFD
:1065DC00056E04D0D89003360436052A04AEFAD7DB
:1065EC000350015C04500258D8A004D00350015E43
:1065FC000450025AD89004320332052EF1D70650BB
:10660C00D8B404D0016C021ED8B0022A01C001F02B
:10661C0002C002F0120003AE0FD0000E076E000E87
:10662C00086E800E096E0150075C016E025008580E
:10663C00026E03500958036E06AE0FD0000E076EA3
:10664C00000E086E800E096E0450075C046E055037
:10665C000858056E06500958066E000E011A000EF9
:10666C00021A800E031A000E041A000E051A800E70
:10667C00061A0450015C0550025806500358D8B055
:10668C0002D0D8901200D8801200000E096E000EB5
:10669C000A6E000E0B6E000E0C6E055006100710E5
:1066AC000810D8B42AD0010E0D6E06D0D89005363D
:1066BC000636073608360D2A08AEF8D7D8900936B4
:1066CC000A360B360C360550015C06500258075042
:1066DC00035808500458D8A009D00550015E065044
:1066EC00025A0750035A0850045A0980D8900832AD
:1066FC000732063205320D2EE1D709C001F00AC06F
:10670C0002F00BC003F00CC004F01200000E0C6E73
:10671C000AAE06D0096C0A1ED8B00A2A010E0C6EFD
:10672C0008AE06D0076C081ED8B0082A010E0C1A49
:10673C00000E0E6E000E0D6E09500A10D8B41CD04F
:10674C00010E0B6E04D0D89009360A360B2A0AAE0D
:10675C00FAD7D8900D360E360950075C0A500858F7
:10676C00D8A005D00950075E0A50085A0D80D89061
:10677C000A3209320B2EEDD70C50D8B404D00D6C64
:10678C000E1ED8B00E2A0DC007F00EC008F0120075
:10679C000450D8B405D0015002100310D8A40CD06A
:1067AC00000E016E000E026E000E036E1200042A23
:1067BC00D890033202320132000E0114066E000E24
:1067CC000214076EFE0E0314086E06500710081014
:1067DC00D8B40CD0ECD7042A010E0126000E0222EC
:1067EC00000E0322D890033202320132000E011443
:1067FC00066E000E0214076EFF0E0314086E065090
:10680C0007100810D8B406D0E6D70406D890013685
:10681C000236033602BE03D0020E0460F6D704A083
:10682C00029ED8900432045003120550D8A4038E53
:10683C0001C001F002C002F003C003F012002BC033
:10684C002DF02E6A2F6A2A342D3601E32E802D501E
:10685C00376E3750D8A409D0000E296E000E2A6E60
:10686C00000E2B6E000E2C6E1200170E2D6E29C012
:10687C002EF02AC02FF02BC030F02D28316E04D012
:10688C00D89030322F322E32312EFAD72E50326E23
:10689C002A8EFF0E2916FF0E2A16000E2B162950D3
:1068AC00336E2A50346E2B50356E366A8E0E375E30
:1068BC0037AE0DD03750800A8F0FD8A0CDD7D890D7
:1068CC003632353234323332373EF9D70DD0170EDB
:1068DC00376407D0C1D7D890333634363536363690
:1068EC0037063750D8A4F7D73250D8B408D0361E54
:1068FC00351E341E336C000E34223522362233C042
:10690C0029F034C02AF035C02BF036C02CF0120020
:10691C0024C028F0296A2A6A2334283601E3298006
:10692C0028502F6E2F50D8A407D0000E226E000EC8
:10693C00236E000E246E120027C028F0296A2A6AE2
:10694C002634283601E329802850306E3050D8A4E4
:10695C0007D0000E226E000E236E000E246E120065
:10696C00000E2C6E000E2D6E000E2E6E3050890F08
:10697C002F5E24C030F02750301A800E3016238E34
:10698C00FF0E2216FF0E2316000E2416268EFF0E67
:10699C002516FF0E2616000E2716180E2B6ED890F5
:1069AC002C362D362E362550225C26502358275057
:1069BC002458D8A007D02550225E2650235A2750A1
:1069CC00245A2C80D8902236233624362B2EE7D707
:1069DC002CC001F02DC002F02EC003F02FC004F02B
:1069EC0030C005F0CEEC33F001C022F002C023F031
:1069FC0003C024F01200033404340C6E0C50D8A4E1
:106A0C0009D0000E016E000E026E000E036E000E19
:106A1C00046E1200063407340B6E0B50D8B4F1D749
:106A2C00038EFF0E0116FF0E0216FF0E0316000E4C
:106A3C000416068EFF0E0416FF0E0516FF0E061624
:106A4C00000E0716000E076E000E086E000E096E83
:106A5C00000E0A6E7F0E0C5E0B50A00F0C5E200E0B
:106A6C000B6ED8900736083609360A360450015C8E
:106A7C00055002580650035807500458D8A009D0A6
:106A8C000450015E0550025A0650035A0750045A2E
:106A9C000780D89001360236033604360B2EE1D728
:106AAC000CAE0DD00C50800A9F0FD8A0AAD7D8904E
:106ABC000A320932083207320C3EF9D70DD01F0EBC
:106ACC000C6407D09ED7D8900736083609360A369C
:106ADC000C060C50D8A4F7D707C001F008C002F080
:106AEC0009C003F00AC004F0120015C019F01A6AAC
:106AFC001B6A1434193601E31A8019501C6E1C5091
:106B0C00D8A407D0000E136E000E146E000E156E76
:106B1C00120018C019F01A6A1B6A1734193601E3EF
:106B2C001A801950216E2150D8A407D0000E136E74
:106B3C00000E146E000E156E120021507B0F1C26D9
:106B4C0015C021F01850211A800E2116148E178EA4
:106B5C00FF0E1616FF0E1716000E1816000E1D6EE1
:106B6C00000E1E6E000E1F6E070E206E13A006D0B8
:106B7C0016501D2617501E2218501F22D890153261
:106B8C0014321332D890163617361836202EEED70C
:106B9C00090E206E13A006D016501D2617501E226B
:106BAC0018501F22D890153214321332D8901F323D
:106BBC001E321D32202EEED71DC001F01EC002F079
:106BCC001FC003F01CC004F021C005F0CEEC33F064
:106BDC0001C013F002C014F003C015F01200076ED0
:106BEC00F00E8316F00E95169692969096948D92C2
:106BFC008D908D94C1EC30F0300EA4EC31F00D0E74
:106C0C00066EFC0EE82EFED7062EFCD70D0E066E79
:106C1C00FC0EE82EFED7062EFCD70D0E066EFC0ED3
:106C2C00E82EFED7062EFCD70D0E066EFC0EE82EB7
:106C3C00FED7062EFCD70D0E066EFC0EE82EFED7E8
:106C4C00062EFCD70D0E066EFC0EE82EFED7062E79
:106C5C00FCD7300EA4EC31F00D0E066EFC0EE82EB7
:106C6C00FED7062EFCD7320EA4EC31F087EC31F0B7
:106C7C000009D8A4FBD787EC31F00009D8A4FBD7C6
:106C8C000750A4EC31F087EC31F00009D8A4FBD705
:106C9C00080EA4EC31F087EC31F00009D8A4FBD736
:106CAC000F0EA4EC31F087EC31F00009D8A4FBD71F
:106CBC00010EA4EC31F087EC31F00009D8A4FBD71D
:106CCC00040EA4EC31F087EC31F00009D8A4FBD70A
:106CDC00800E4CEC32F0120003C007F0086A096A0F
:106CEC000234073601E3088007500F6E0F50D8A40A
:106CFC0009D0000E016E000E026E000E036E000E27
:106D0C00046E120006C007F0086A096A05340736DB
:106D1C0001E3088007500E6E0E50D8B4EAD7028EED
:106D2C00FF0E0116FF0E0216000E0316058EFF0E47
:106D3C000416FF0E0516000E0616000E0A6E000E47
:106D4C000B6E000E0C6E000E0D6E7F0E0F5E0E5055
:106D5C00980F0F5E180E0E6ED8900A360B360C3646
:106D6C000D360450015C0550025806500358D8A04B
:106D7C0007D00450015E0550025A0650035A0A808F
:106D8C00D8900136023603360E2EE6D70FAE0DD054
:106D9C000F50800A970FD8A0ACD7D8900D320C3278
:106DAC000B320A320F3EF9D70DD0170E0F6407D0F5
:106DBC00A0D7D8900A360B360C360D360F060F506E
:106DCC00D8A4F7D70AC001F00BC002F00CC003F036
:106DDC000DC004F012002EC032F0336A346A2D3428
:106DEC00323601E333803250376E31C032F0336AC1
:106DFC00346A3034323601E333803250366E3750D9
:106E0C00D8B40AD03650375CD8B00DD03750365C79
:106E1C00326E180E326407D02FC02CF030C02DF01B
:106E2C0031C02EF012003650D8B40AD03750365C30
:106E3C00D8B00DD03650375C326E180E326407D095
:106E4C002CC02CF02DC02DF02EC02EF01200060EF2
:106E5C00356E2EBE358E31BE358C2D8EFF0E2C161A
:106E6C00FF0E2D16000E2E16308EFF0E2F16FF0E57
:106E7C003016000E31163650375CD8B01BD0D89077
:106E8C002F3630363136360637503618D8B40DD04A
:106E9C00350635C032F0070E3216D8B406D0EFD70F
:106EAC00D8902E322D322C32372A36503718D8B48F
:106EBC001FD0F6D73750365CD8B01AD0D8902C36B5
:106ECC002D362E36370637503618D8B40DD0350639
:106EDC0035C032F0070E3216D8B406D0EFD7D890A2
:106EEC00313230322F32362A36503718D8A4F7D7F1
:106EFC0035AE0CD0FF0E2C1AFF0E2D1AFF0E2E1ACB
:106F0C00010E2C26000E2D22000E2E2235AC0CD09C
:106F1C00FF0E2F1AFF0E301AFF0E311A010E2F26FC
:106F2C00000E3022000E3122000E356E2C502F2612
:106F3C002D5030222E50312231AE0ED0FF0E2F1A92
:106F4C00FF0E301AFF0E311A010E2F26000E3022C2
:106F5C00000E3122010E356E2FC001F030C002F050
:106F6C0031C003F037C004F035C005F0CEEC33F07F
:106F7C0001C02CF002C02DF003C02EF012002B6EBD
:106F8C006D0E2B64A3D0000E106E030E0F6E000E50
:106F9C00096E0A0E086E000E046E640E036E2BC092
:106FAC0001F0026A02EC32F001C006F002C007F0F8
:106FBC0023EC32F006C00DF007C00EF028EC31F0D7
:106FCC001B0E0D26000E0E222C0E0D24F66E100E2E
:106FDC000E20F76E0900F5CF16F00900F5CF17F06B
:106FEC000A00F5CF18F0000E096E640E086E2BC067
:106FFC0006F0076A23EC32F006C00DF007C00EF065
:10700C00000E106E030E0F6E28EC31F0360E0D26AE
:10701C00000E0E222C0E0D24F66E100E0E20F76EA6
:10702C000900F5CF13F00900F5CF14F00A00F5CFE5
:10703C0015F07BEC35F013C028F014C029F015C006
:10704C002AF0000E106E030E0F6E000E046E0A0E68
:10705C00036E2BC001F0026A02EC32F001C00DF09D
:10706C0002C00EF028EC31F02C0E0D24F66E100E32
:10707C000E20F76E0900F5CF16F00900F5CF17F0CA
:10708C000A00F5CF18F028C013F029C014F02AC05C
:10709C0015F07BEC35F013C025F014C026F015C0AC
:1070AC0027F025C013F026C014F027C015F0000EF1
:1070BC00166E000E176E3F0E186E7BEC35F013C07B
:1070CC0022F014C023F015C024F012000A0E2B6419
:1070DC0065D0000E106E030E0F6E000E046E0A0EBD
:1070EC00036E2BC001F0026A02EC32F001C00DF00D
:1070FC0002C00EF028EC31F02C0E0D24F66E100EA2
:10710C000E20F76E0900F5CF16F00900F5CF17F039
:10711C000A00F5CF18F0000E096E0A0E086E2BC08F
:10712C0006F0076A23EC32F006C00DF007C00EF033
:10713C00000E106E030E0F6E28EC31F01B0E0D2698
:10714C00000E0E222C0E0D24F66E100E0E20F76E75
:10715C000900F5CF13F00900F5CF14F00A00F5CFB4
:10716C0015F07BEC35F013C028F014C029F015C0D5
:10717C002AF028C013F029C014F02AC015F0000E14
:10718C00166E000E176E3F0E186E7BEC35F013C0AA
:10719C0022F014C023F015C024F012002B50030D64
:1071AC002C0EF324F66E100EF420F76E0900F5CFBA
:1071BC0013F00900F5CF14F00A00F5CF15F0000E0E
:1071CC00166E000E176E3F0E186E7BEC35F013C06A
:1071DC0022F014C023F015C024F01200286E28AE43
:1071EC00D9D0286C2850800A120FD8A079D0000E64
:1071FC000A6E0A0E096E000E046E640E036E2850A1
:10720C00016E026A01BE0206D9EC32F001C007F031
:10721C0002C008F08CEC33F0090E07260750030D62
:10722C002C0EF324F66E100EF420F76E0900F5CF39
:10723C0016F00900F5CF17F00A00F5CF18F0000E84
:10724C000A6E640E096E2850076E086A07BE08069F
:10725C008CEC33F0120E07260750030D2C0EF32482
:10726C00F66E100EF420F76E0900F5CF13F009003E
:10727C00F5CF14F00A00F5CF15F07BEC35F013C008
:10728C0025F014C026F015C027F025C013F026C039
:10729C0014F027C015F0000E046E0A0E036E285071
:1072AC00016E026A01BE0206D9EC32F00150030DE8
:1072BC002C0EF324F66E100EF420F76E0900F5CFA9
:1072CC0016F00900F5CF17F00A00F5CF18F07BEC9B
:1072DC0035F013C022F014C023F015C024F01200B6
:1072EC002850800A750FD8A043D0000E0A6E0A0EE3
:1072FC00096E2850076E086A07BE08068CEC33F03E
:10730C00090E07260750030D2C0EF324F66E100EF3
:10731C00F420F76E0900F5CF13F00900F5CF14F047
:10732C000A00F5CF15F0000E046E0A0E036E2850FD
:10733C00016E026A01BE0206D9EC32F00150030D57
:10734C002C0EF324F66E100EF420F76E0900F5CF18
:10735C0016F00900F5CF17F00A00F5CF18F07BEC0A
:10736C0035F013C022F014C023F015C024F0120025
:10737C002850030D2C0EF324F66E100EF420F76E2D
:10738C000900F5CF22F00900F5CF23F00A00F5CF64
:10739C0024F012002850800A120FD8A079D0000EC9
:1073AC000A6E0A0E096E000E046E640E036E2850EF
:1073BC00016E026A01BE0206D9EC32F001C007F080
:1073CC0002C008F08CEC33F0090E07260750030DB1
:1073DC00050EF324F66E100EF420F76E0900F5CFAF
:1073EC0016F00900F5CF17F00A00F5CF18F0000ED3
:1073FC000A6E640E096E2850076E086A07BE0806EE
:10740C008CEC33F0120E07260750030D050EF324F7
:10741C00F66E100EF420F76E0900F5CF13F009008C
:10742C00F5CF14F00A00F5CF15F07BEC35F013C056
:10743C0025F014C026F015C027F025C013F026C087
:10744C0014F027C015F0000E046E0A0E036E2850BF
:10745C00016E026A01BE0206D9EC32F00150030D36
:10746C00050EF324F66E100EF420F76E0900F5CF1E
:10747C0016F00900F5CF17F00A00F5CF18F07BECE9
:10748C0035F013C022F014C023F015C024F0120004
:10749C002850800A750FD8A043D0000E0A6E0A0E31
:1074AC00096E2850076E086A07BE08068CEC33F08C
:1074BC00090E07260750030D050EF324F66E100E69
:1074CC00F420F76E0900F5CF13F00900F5CF14F096
:1074DC000A00F5CF15F0000E046E0A0E036E28504C
:1074EC00016E026A01BE0206D9EC32F00150030DA6
:1074FC00050EF324F66E100EF420F76E0900F5CF8E
:10750C0016F00900F5CF17F00A00F5CF18F07BEC58
:10751C0035F013C022F014C023F015C024F0120073
:10752C002850030D050EF324F66E100EF420F76EA2
:10753C000900F5CF22F00900F5CF23F00A00F5CFB2
:10754C0024F01200D7EC30F07B0E026E100E036E9E
:10755C0052EC31F0BAEC30F0F3EC30F001C0A4F0A6
:10756C0002C0A5F0A4C009F0A5C00AF004EC31F0EB
:10757C0009C0A6F00AC0A7F00BC0A8F0000E166E4A
:10758C00200E176E400E186EA6C013F0A7C014F094
:10759C00A8C015F07BEC35F013C022F014C023F01A
:1075AC0015C024F0000E256E800E266E440E276E3C
:1075BC008EEC34F022C0A6F023C0A7F024C0A8F0B3
:1075CC00A6C016F0A7C017F0A8C018F0A6C013F0FC
:1075DC00A7C014F0A8C015F07BEC35F013C07AF0FE
:1075EC0014C07BF015C07CF0A6C016F0A7C017F035
:1075FC00A8C018F0A6C013F0A7C014F0A8C015F0CE
:10760C007BEC35F013C07DF014C07EF015C07FF01C
:10761C00A6C016F0A7C017F0A8C018F07DC013F0D4
:10762C007EC014F07FC015F07BEC35F013C080F0F9
:10763C0014C081F015C082F0A6C016F0A7C017F0D8
:10764C00A8C018F0A6C013F0A7C014F0A8C015F07D
:10765C007BEC35F013C083F014C084F015C085F0BA
:10766C00A6C016F0A7C017F0A8C018F083C013F07E
:10767C0084C014F085C015F07BEC35F013C086F097
:10768C0014C087F015C088F0A6C016F0A7C017F07C
:10769C00A8C018F086C013F087C014F088C015F08D
:1076AC007BEC35F013C089F014C08AF015C08BF058
:1076BC00A6C016F0A7C017F0A8C018F0A6C013F00B
:1076CC00A7C014F0A8C015F07BEC35F013C08CF0FB
:1076DC0014C08DF015C08EF0A6C016F0A7C017F020
:1076EC00A8C018F08CC013F08DC014F08EC015F02B
:1076FC007BEC35F013C08FF014C090F015C091F0F6
:10770C00A6C016F0A7C017F0A8C018F08FC013F0D1
:10771C0090C014F091C015F07BEC35F013C092F0D2
:10772C0014C093F015C094F0A6C016F0A7C017F0C3
:10773C00A8C018F092C013F093C014F094C015F0C8
:10774C007BEC35F013C095F014C096F015C097F093
:10775C009A0E166E2B0E176E430E186E89C013F010
:10776C008AC014F08BC015F07BEC35F013C02FF0F1
:10777C0014C030F015C031F01F0E166EB10E176E1E
:10778C00C10E186E95C013F096C014F097C015F08A
:10779C007BEC35F013C02CF014C02DF015C02EF07E
:1077AC00F1EC36F02CC098F02DC099F02EC09AF068
:1077BC00C00E166E020E176E440E186E80C013F0BB
:1077CC0081C014F082C015F07BEC35F013C03BF097
:1077DC0014C03CF015C03DF098C038F099C039F099
:1077EC009AC03AF0E2EC31F038C09BF039C09CF012
:1077FC003AC09DF0600E166E460E176E440E186E53
:10780C007AC013F07BC014F07CC015F07BEC35F023
:10781C0013C02FF014C030F015C031F09BC02CF009
:10782C009CC02DF09DC02EF0F1EC36F02CC09EF0DB
:10783C002DC09FF02EC0A0F0400E166E1C0E176EC1
:10784C00440E186EA6C013F0A7C014F0A8C015F013
:10785C007BEC35F013C03BF014C03CF015C03DF090
:10786C009EC038F09FC039F0A0C03AF0E2EC31F085
:10787C0038C0A1F039C0A2F03AC0A3F0A1C02CF0DE
:10788C00A2C02DF0A3C02EF0E60E2F6E680E306E47
:10789C00430E316EF1EC36F02CC077F02DC078F041
:1078AC002EC079F0A90E3E6E000E3F6E8A0E406E11
:1078BC00100E416E77C042F078C043F079C044F0AE
:1078CC007CEC3CF0C30EA4EC31F0A90E026E000E61
:1078DC00036E3BEC31F0C80E016E000E026E000E12
:1078EC00036E000E046E6CEC31F036D6420E0001C5
:1078FC00636F000E646F6BD3250E7619D8B409D064
:10790C003EC0D9FF3FC0DAFF76C0DFFF3E4A3F2AB8
:10791C005ED3000E666F000E656F40C0F6FF41C06F
:10792C00F7FF0800F5502E0AD8A438D0668D404ACF
:10793C00412A000E726F000E716F25D071C00DF0D0
:10794C0072C00EF0000E106E0A0E0F6E28EC31F0A5
:10795C000DC071F00EC072F0D00E456EFF0E466E6B
:10796C0040C0F6FF41C0F7FF0800F550476E486A6B
:10797C004550472646504822475000017127485031
:10798C007223404A412A40C0F6FF41C0F7FF08006D
:10799C00F550E4EC30F0D8A009D0D0D7000E726FBF
:1079AC00000E716F668902D0668512D040C0F6FF5A
:1079BC0041C0F7FF404A412A0800F5CF76F000019C
:1079CC007651000AD8B40FD3660AD8B4EDD7FFD2DB
:1079DC00070E6615D8B4C6D266A904D0000E726F15
:1079EC00060E716F63C0D9FF64C0DAFFDECF73F08F
:1079FC00DECF74F0DDCF75F0030E6327000E642329
:107A0C0075AF11D073C001F074C002F075C003F0F3
:107A1C0016EC31F001C073F002C074F003C075F0C5
:107A2C00030E00016513000E6C6F000E6B6F73512B
:107A3C0074117511D8B486D0820E456EFF0E466E49
:107A4C0073C047F074C048F075C049F076C04AF076
:107A5C00100E05D0D8904A32493248324732E82EBF
:107A6C00F9D7475045246B6F000E46206C6F6B079F
:107A7C00D8A06C076BC00DF06CC00EF0000E106E31
:107A8C00030E0F6E28EC31F00DC06BF00EC06CF0D5
:107A9C006BC007F06CC008F0000E0A6E0A0E096E7F
:107AAC008CEC33F007C06BF008C06CF000016CAFCD
:107ABC0003D06B07D8A06C076B510008F4EC38F0BE
:107ACC0022C06DF023C06EF024C06FF06DC013F0B7
:107ADC006EC014F06FC015F073C016F074C017F0C0
:107AEC0075C018F07BEC35F013C06DF014C06EF05F
:107AFC0015C06FF06DC001F06EC002F06FC003F0E6
:107B0C00000E046E800E056E3F0E066E11EC33F007
:107B1C00D8B005D000016B07D8A06C0713D06DC08E
:107B2C0001F06EC002F06FC003F0000E046E200E68
:107B3C00056E410E066E11EC33F0D8A003D0000197
:107B4C006B4B6C2B000172BF06D072511BE10D0EFA
:107B5C00715DD8B017D073C02CF074C02DF075C007
:107B6C002EF07151C5EC37F022C02FF023C030F04D
:107B7C0024C031F0F1EC36F02CC073F02DC074F051
:107B8C002EC075F000016CBF06D06C5120E10A0EBE
:107B9C006B5DD8B01CD0735174117511D8B456D01C
:107BAC0073C029F074C02AF075C02BF025EC34F0AA
:107BBC0029502A102B102C10D8A448D000016CBFCF
:107BCC0045D06C5104E1020E6B5DD8A03FD06DC066
:107BDC0001F06EC002F06FC003F0700E046E890EDF
:107BEC00056E400E066E11EC33F0D8B003D00001D8
:107BFC00F70E02D00001F80E6B27FF0E6C236B51B1
:107C0C00F4EC38F022C06DF023C06EF024C06FF09D
:107C1C0073C001F074C002F075C003F06DC004F0C5
:107C2C006EC005F06FC006F072EC36F001C067F064
:107C3C0002C068F003C069F004C06AF0000E0001D5
:107C4C00736F000E746F000E756F33D073C029F014
:107C5C0074C02AF075C02BF025EC34F029C067F005
:107C6C002AC068F02BC069F02CC06AF073C038F0E1
:107C7C0074C039F075C03AF067C009F068C00AF0FA
:107C8C0069C00BF06AC00CF078EC32F009C03BF024
:107C9C000AC03CF00BC03DF0E2EC31F038C073F0A0
:107CAC0039C074F03AC075F0000E00016C6F000E14
:107CBC006B6F010E766F7651040D530EF324F66E36
:107CCC00100EF420F76E0900F550675D0900F550B1
:107CDC0068590900F55069590900F5506A59D8A03E
:107CEC0005D0762B0A0E7619D8A4E5D7030E6515A8
:107CFC00456E000E6615466E45504610D8B451D0F0
:107D0C003EC0D9FF3FC0DAFF2D0EDF6E3E4A3F2A40
:107D1C0048D067C001F068C002F069C003F06AC0C7
:107D2C0004F07651040D530EF324F66E100EF4206D
:107D3C00F76E0900F5CF05F00900F5CF06F0090044
:107D4C00F5CF07F00A00F5CF08F04BEC33F001C08B
:107D5C006DF002C06EF003C06FF004C070F06DC027
:107D6C0001F06EC002F06FC003F070C004F00A0E98
:107D7C00056E000E066E000E076E000E086EA6EC69
:107D8C0032F001C06DF002C06EF003C06FF004C0A1
:107D9C0070F000016D51300F3EC0D9FF3FC0DAFFCB
:107DAC00B4D776077629D8B40CD0B3D73EC0D9FF58
:107DBC003FC0DAFF300EDF6E3E4A3F2A6B07D8A079
:107DCC006C076CBF05D06C51F1E16B05D8B0EED7E8
:107DDC0072BF09D0725104E1090E715DD8A003D0B5
:107DEC00080E766F02D071C076F07651715F000E7E
:107DFC00725B7651D8B408D03EC0D9FF3FC0DAFFD1
:107E0C002E0EDF6E3E4A3F2A7651F4EC38F022C03B
:107E1C0060F023C061F024C062F073C016F074C02F
:107E2C0017F075C018F060C013F061C014F062C098
:107E3C0015F07BEC35F013C029F014C02AF015C0F6
:107E4C002BF025EC34F029C067F02AC068F02BC069
:107E5C0069F02CC06AF070D067C001F068C002F005
:107E6C0069C003F06AC004F07651040D530EF3247C
:107E7C00F66E100EF420F76E0900F5CF05F0090030
:107E8C00F5CF06F00900F5CF07F00A00F5CF08F0A2
:107E9C004BEC33F001C06DF002C06EF003C06FF01C
:107EAC0004C070F06DC001F06EC002F06FC003F042
:107EBC0070C004F00A0E056E000E066E000E076E02
:107ECC00000E086EA6EC32F001C06DF002C06EF030
:107EDC0003C06FF004C070F000016D51300F3EC054
:107EEC00D9FF3FC0DAFFDF6E3E4A3F2A67C001F080
:107EFC0068C002F069C003F06AC004F07651040D4A
:107F0C00530EF324F66E100EF420F76E0900F5CF25
:107F1C0005F00900F5CF06F00900F5CF07F00A00CF
:107F2C00F5CF08F0A6EC32F001C067F002C068F0A3
:107F3C0003C069F004C06AF0000176077629D8B452
:107F4C000CD08AD73EC0D9FF3FC0DAFF300EDF6EAF
:107F5C003E4A3F2A7107D8A0720771517211D8B4EA
:107F6C0036D0F0D771517211D8A408D0675168116E
:107F7C0069116A11D8A402D0714B722B7651456EDF
:107F8C00466A7151455C4650800A476E7251800AB0
:107F9C004758D8A00BD07651456E466A4550715D56
:107FAC007251800A476E4650800A4758030E651579
:107FBC00456E000E6615466E45504610D8B407D077
:107FCC003EC0D9FF3FC0DAFF2D0EDF6E9FD440C0FC
:107FDC00F6FF41C0F7FF404A412A0800F5CF76F082
:107FEC007651D8A489D43EC0D9FF3FC0DAFF000E29
:047FFC00DF6E120022
:020000040020DA
:08000000FFFFFFFFFFFFFFFF00
:020000040030CA
:0E000000240E3F1EFF8181FF0FC00FE00F4056
:00000001FF
