:020000040000FA
:0400000007EF00F016
:100008000E82EBED00F011EF01F0720ED36E17ECDB
:1000180001F0959095929594959692960D50D8B436
:1000280018EF00F01AEF00F07CEF00F0090E8C6E6C
:10003800640E016E000E026E000E036E000E046E5A
:10004800B0EC00F0080E8C6E640E016E000E026EAD
:10005800000E036E000E046EB0EC00F00C0E8C6EF9
:10006800640E016E000E026E000E036E000E046E2A
:10007800B0EC00F0040E8C6E640E016E000E026E81
:10008800000E036E000E046EB0EC00F0060E8C6ECF
:10009800640E016E000E026E000E036E000E046EFA
:1000A800B0EC00F0020E8C6E640E016E000E026E53
:1000B800000E036E000E046EB0EC00F0030E8C6EA2
:1000C800640E016E000E026E000E036E000E046ECA
:1000D800B0EC00F0010E8C6E640E016E000E026E24
:1000E800000E036E000E046EB0EC00F012EF00F08C
:1000F800090E8C6E640E016E000E026E000E036E09
:10010800000E046EB0EC00F0030E8C6E640E016EEF
:10011800000E026E000E036E000E046EB0EC00F0CE
:10012800060E8C6E640E016E000E026E000E036EDB
:10013800000E046EB0EC00F00C0E8C6E640E016EB6
:10014800000E026E000E036E000E046EB0EC00F09E
:1001580012EF00F007EF00F0000E056E000E066EBD
:10016800000E076E000E086EDBEF00F0000E096E41
:10017800000E0A6E000E0B6E000E0C6E010E0926A4
:10018800000E0A220B220C220C500B100A1009E157
:10019800A50E095CD8A0D3EF00F0D5EF00F0C2EFB0
:1001A80000F0010E0526000E062207220822015043
:1001B800055C025006580350075804500858D8A048
:1001C800E8EF00F0EAEF00F0BAEF00F012000600E6
:1001D800F2A2F1EF00F0F3EF00F00FEF01F00D5095
:1001E800D8A4F9EF00F0FBEF00F0FFEF00F0010EEC
:1001F8000D6E09EF01F00D04D8A405EF01F007EF2B
:1002080001F009EF01F0000E0D6E0DB002D08996D5
:1002180001D08986F2920E9211000D6A0E900E920C
:10022800000109EF00F0F288F18CF292F28E1200D0
:020000040020DA
:08000000FFFFFFFFFFFFFFFF00
:020000040030CA
:0E000000240E3F1EFF8181FF0FC00FE00F4056
:00000001FF
