:020000040000FA
:0400000007EF00F016
:10000800028209ED00F042EF00F00600F2A20FEFC5
:1000180000F011EF00F028EF00F00150D8A417EF1E
:1000280000F019EF00F01DEF00F0010E016E27EF50
:1000380000F00104D8A423EF00F025EF00F027EF2B
:1000480000F0000E016EF29202921100720ED36E51
:1000580048EC00F0939293940150D8B436EF00F036
:1000680038EF00F03CEF00F08A828A9430EF00F01D
:100078008A928A8430EF00F007EF00F0016A02905C
:10008800029200012AEF00F0F288F18CF292F28ECF
:02009800120054
:020000040020DA
:08000000FFFFFFFFFFFFFFFF00
:020000040030CA
:0E000000240E3F1EFF8181FF0FC00FE00F4056
:00000001FF
