:020000040000FA
:1010000096EF3EF000202020484F4C41204D554E99
:10101000444F0020204144494F53204D554E444FEA
:021020000000CE
:107D2400500EE82EFED71200000EF86E100EF76EFD
:107D34000001B5EF3EF00F0E016E000E026E000E54
:107D4400036E000E046EE1EC3EF01200280E83EC8C
:107D54003FF0060E19EC3FF00F0E19EC3FF00E0E3B
:107D640019EC3FF01200A8EC3EF0050E026E100E66
:107D7400036EC7EC3EF0C00E19EC3FF0130E026E1A
:107D8400100E036EC7EC3EF0FFD70FD0FCEC3EF0B4
:107D94000009D8A4FBD702C0F6FF03C0F7FF080010
:107DA400F55038EC3FF0024A032A02C0F6FF03C044
:107DB400F7FF0800F5500009D8B41200E7D708D03F
:107DC400100E056E940EE82EFED7052EFCD700D0BB
:107DD400FF0E0126FF0E0222FF0E0322FF0E0422D5
:107DE4000128EEE10228ECE10328EAE10428D8B4F2
:107DF4001200E6D78D828D9092EC3EF08D8492EC49
:107E04003EF083A60AD08D9492EC3EF08D8492ECE1
:107E14003EF08D948D92010E12008D9492EC3EF002
:107E24008D8492EC3EF08D948D92000E1200016EC2
:107E3400F00E9516F00E831601380F0B0F0B8312FC
:107E44008D928D9092EC3EF08D8492EC3EF08D9468
:107E5400F00E831601500F0B831292EC3EF08D84CA
:107E640092EC3EF08D940F0E95121200016EF00EFE
:107E74009516F00E831601380F0B0F0B83128D80AD
:107E84008D9292EC3EF08D8492EC3EF08D94F00E47
:107E9400831601500F0B831292EC3EF08D8492EC0A
:107EA4003EF08D940F0E95121200046EF00E95168E
:107EB400F00E83160450016E026A800E0112000E49
:107EC4000212040E036E023402320132032EFBD777
:107ED40001500F0B83128D928D9092EC3EF08D84A5
:107EE40092EC3EF08D94F00E831604500F0B831227
:107EF40092EC3EF08D8492EC3EF08D940F0E951230
:107F04001200076EF00E8316F00E95169692969058
:107F140096948D928D908D949DEC3EF0300E19ECDC
:107F24003FF00D0E066EFC0EE82EFED7062EFCD793
:107F34000D0E066EFC0EE82EFED7062EFCD70D0E97
:107F4400066EFC0EE82EFED7062EFCD70D0E066E2E
:107F5400FC0EE82EFED7062EFCD70D0E066EFC0E88
:107F6400E82EFED7062EFCD70D0E066EFC0EE82E6C
:107F7400FED7062EFCD7300E19EC3FF00D0E066E20
:107F8400FC0EE82EFED7062EFCD7320E19EC3FF07D
:107F9400FCEC3EF00009D8A4FBD7FCEC3EF0000951
:107FA400D8A4FBD7075019EC3FF0FCEC3EF00009D5
:107FB400D8A4FBD7080E19EC3FF0FCEC3EF0000906
:107FC400D8A4FBD70F0E19EC3FF0FCEC3EF00009EF
:107FD400D8A4FBD7010E19EC3FF0FCEC3EF00009ED
:107FE400D8A4FBD7040E19EC3FF0FCEC3EF00009DA
:0C7FF400D8A4FBD7800E57EC3FF0120021
:020000040020DA
:08000000FFFFFFFFFFFFFFFF00
:020000040030CA
:0E000000240E3F1EFF8181FF0FC00FE00F4056
:00000001FF
