:020000040000FA
:1010000070EF37F000436F6E7665727469646F72CB
:0B1010002041443A00253034750000F8
:106EA0001200500EE82EFED71200010EC26E0E0E1A
:106EB000C16EBC0EC06E1200000E926E000E936E7C
:106EC000000E896E000E8A6E12000F0E016E000E0B
:106ED000026E000E036E000E046E2CEC38F01200F1
:106EE00000EE60F02D0EEE6AE806FDE1000EF86E91
:106EF000000189EF39F0280E68EC3BF0060EEEEC4D
:106F000037F00F0EEEEC37F00E0EEEEC37F0050E0C
:106F1000026E100E036EB4EC38F012000150030242
:106F2000F3CF05F0F4CF06F001500402F35006262B
:106F300002500302F350062605C001F006C002F01D
:106F40001200C282C2B2A7EF37F0A9EF37F0A2EF6A
:106F500037F0C450046E036AC3500324056E000E5C
:106F60000420066E05C001F006C002F0120001C048
:106F700003F002C004F0BFEF37F0014A022A01C05B
:106F8000D9FF02C0DAFFDF50D8A4C9EF37F0CBEF4A
:106F900037F0BDEF37F00350015C016E045002582A
:106FA000026E1200D00E036EFF0E046E01C005F0DB
:106FB00002C006F0035005260450062206500AE1DE
:106FC0000A0E055CD8A0E7EF37F0EAEF37F0010EC4
:106FD000EBEF37F0000E016E026A1200016EF00E48
:106FE0009516F00E831601380F0B0F0B83128D923E
:106FF0008D9051EC37F08D8451EC37F08D94F00E7C
:10700000831601500F0B831251EC37F08D8451EC35
:1070100037F08D940F0E95121200016EF00E95163A
:10702000F00E831601380F0B0F0B83128D808D929B
:1070300051EC37F08D8451EC37F08D94F00E8316BF
:1070400001500F0B831251EC37F08D8451EC37F067
:107050008D940F0E9512120036EF38F0100E056E5B
:10706000940EE82EFED7052EFCD700D0FF0E012689
:10707000FF0E0222FF0E0322FF0E042201280AE166
:10708000022808E1032806E10428D8A44AEF38F0D2
:107090004CEF38F02EEF38F0120062EF38F091EC40
:1070A00038F00009D8A457EF38F059EF38F04FEF17
:1070B00038F002C0D9FF03C0DAFFDF500DEC38F022
:1070C000024A032A02C0D9FF03C0DAFFDF50D8A466
:1070D0006CEF38F06EEF38F04FEF38F01200000E22
:1070E000106E000E0F6E80EF38F00EC001F0026AD5
:1070F0000CC003F00DC004F023EC3AF00F4A102A44
:107100000F500A24D96E10500B20DA6EDF500E6E2D
:107110000E50D8A48EEF38F090EF38F075EF38F0BD
:1071200012008D828D9051EC37F08D8451EC37F048
:1071300083A69DEF38F09FEF38F0AAEF38F08D94DA
:1071400051EC37F08D8451EC37F08D948D92010E17
:10715000B3EF38F08D9451EC37F08D8451EC37F06B
:107160008D948D92000E1200CAEF38F091EC38F039
:107170000009D8A4BEEF38F0C0EF38F0B6EF38F011
:1071800002C0F6FF03C0F7FF0800F5500DEC38F021
:10719000024A032A02C0F6FF03C0F7FF0800F550B9
:1071A0000009D8A4D6EF38F0D8EF38F0B6EF38F0B1
:1071B0001200010E076E200E01180210D8B4E3EF82
:1071C00038F0E5EF38F0FEEF38F0F70E036EFF0E03
:1071D000046E01C005F002C006F0035005260450FD
:1071E0000622065009E1050E055CD8A0FAEF38F03A
:1071F000FCEF38F0FEEF38F0000E076E07C001F02C
:10720000026A12005E0E00018F6F000E906F5AC06E
:1072100091F05BC092F0000E946F000E936F000E21
:10722000966F000E956F910E526E000E536E5CC0FD
:1072300054F05DC055F08F0E566E000E576E58EC30
:1072400039F0000193515A24D96E94515B20DA6EC3
:10725000000EDF6E1200046EF00E9516F00E83160F
:107260000450016E026A800E0112000E0212040E1A
:10727000036E023402320132032E39EF39F001502D
:107280000F0B83128D928D9051EC37F08D8451EC61
:1072900037F08D94F00E831604500F0B831251ECCF
:1072A00037F08D8451EC37F08D940F0E951212004B
:1072B00054C058F055C059F0000E0001616F000E27
:1072C000606F76EF39F052C03CF053C03DF0580E7D
:1072D0003E6E000E3F6E56C040F057C041F056EC77
:1072E0003EF03C50000160273D50612358C0F6FF3E
:1072F00059C0F7FF0800F5500009D8A482EF39F013
:1073000084EF39F063EF39F060C052F061C053F0A0
:1073100012007BEC37F055EC37F05CEC37F0A1EC69
:1073200037F001C097F002C098F0880E5A6E000E38
:107330005B6E150E5C6E100E5D6E97C05EF098C0B1
:107340005FF002EC39F0C50EEEEC37F0880E026EFD
:10735000000E036E4DEC38F097C001F098C002F0BB
:10736000E6EC3BF0C80E016E000E026E000E036EDE
:10737000000E046E2CEC38F08FEF39F000EF08F0BF
:10738000000166A1C6EF39F0C8EF39F0D2EF39F04D
:1073900013C00AF014C00BF011C00CF012C00DF0B5
:1073A0006FEC38F016BED7EF39F0D9EF39F0DFEFD8
:1073B00039F015C01AF016C01BF0E3EF39F0000EDB
:1073C0001B6E000E1A6E000E196E000E186EF5EF91
:1073D00039F0000E026E200E016E11C003F012C0D3
:1073E00004F023EC3AF0184A192A1A50185C195084
:1073F000800A176E1B50800A1758D8A002EF3AF087
:1074000004EF3AF0E9EF39F0000166B10AEF3AF023
:107410000CEF3AF016EF3AF013C00AF014C00BF07C
:1074200011C00CF012C00DF06FEC38F013C001F079
:1074300014C002F0B7EC37F01A500124116E1B5043
:107440000220126E120003500410D8B42AEF3AF052
:107450002CEF3AF035EF3AF003500410D8A433EF94
:107460003AF035EF3AF03AEF3AF0015050EC37F09D
:1074700087EF3AF020EE04F00350D9260450DA22C8
:10748000DE50DE10D8B447EF3AF049EF3AF064EF3F
:107490003AF020EE04F00350D9260450DA2210EE20
:1074A00002F00350E1260450E222DE50E65CE65092
:1074B000800A096EDE50800A0958D8B062EF3AF0AF
:1074C00064EF3AF087EF3AF020EE02F00350D9264D
:1074D0000450DA22DECF05F0DDCF06F003C0D9FF7D
:1074E00004C0DAFFDECF07F0DDCF08F00550072437
:1074F000D96E06500820DA6E01C0DFFF20EE02F0E0
:107500000350D9260450DA22DE2A000EDD221200B2
:1075100009500A100B100C100D100E100F10101047
:10752000D8B495EF3AF097EF3AF0DFEF3AF0010E6A
:10753000116EA5EF3AF0D89009360A360B360C36A4
:107540000D360E360F361036112A10AEAAEF3AF06D
:10755000ACEF3AF09BEF3AF00950015C0A50025848
:107560000B5003580C5004580D5005580E50065837
:107570000F50075810500858D8A0C1EF3AF0C3EF89
:107580003AF0D3EF3AF00950015E0A50025A0B501C
:10759000035A0C50045A0D50055A0E50065A0F50FB
:1075A000075A1050085AD89010320F320E320D324E
:1075B0000C320B320A320932112EACEF3AF001C014
:1075C00001F002C002F003C003F004C004F005C0E3
:1075D00005F006C006F007C007F008C008F012006A
:1075E00020EE11F0070EDE6AE806FDE209500A10EF
:1075F0000B100C100D100E100F101010D8B403EF5C
:107600003BF005EF3BF057EF3BF0010E196E13EF27
:107610003BF0D89009360A360B360C360D360E364E
:107620000F361036192A10AE18EF3BF01AEF3BF068
:1076300009EF3BF0D8901136123613361436153652
:107640001636173618360950015C0A5002580B508E
:1076500003580C5004580D5005580E5006580F5042
:10766000075810500858D8A038EF3BF03AEF3BF0DD
:107670004BEF3BF00950015E0A50025A0B50035A7F
:107680000C50045A0D50055A0E50065A0F50075A06
:107690001050085A1180D89010320F320E320D322D
:1076A0000C320B320A320932192E1AEF3BF011C09C
:1076B00001F012C002F013C003F014C004F015C0B2
:1076C00005F016C006F017C007F018C008F0120049
:1076D000076EF00E8316F00E95169692969096947D
:1076E0008D928D908D9465EC37F0300EEEEC37F086
:1076F000410E066EEE0EE82EFED7062EFCD700D009
:10770000300EEEEC37F00D0E066EFC0EE82EFED7B6
:10771000062EFCD7320EEEEC37F091EC38F0000973
:10772000D8A495EF3BF097EF3BF08DEF3BF091EC59
:1077300038F00009D8A49FEF3BF0A1EF3BF097EFA2
:107740003BF00750EEEC37F091EC38F00009D8A48C
:10775000ACEF3BF0AEEF3BF0A4EF3BF0080EEEECED
:1077600037F091EC38F00009D8A4B9EF3BF0BBEF4B
:107770003BF0B1EF3BF00F0EEEEC37F091EC38F050
:107780000009D8A4C6EF3BF0C8EF3BF0BEEF3BF0DA
:10779000010EEEEC37F091EC38F00009D8A4D3EFED
:1077A0003BF0D5EF3BF0CBEF3BF0040EEEEC37F0C7
:1077B00091EC38F00009D8A4E0EF3BF0E2EF3BF0A9
:1077C000D8EF3BF0800E2BEC39F0120002B2EBEF59
:1077D0003BF0EFEF3BF0036A032AF0EF3BF0036A64
:1077E000034689500318FD0B0318896E02B0FBEFA6
:1077F0003BF0FFEF3BF0036A032A00EF3CF0036A23
:107800000346034689500318FB0B0318896E01BE1B
:107810000CEF3CF010EF3CF0036A032A11EF3CF050
:10782000036A03460346034689500318F70B0318FF
:10783000896E01BC1EEF3CF022EF3CF0036A032A84
:1078400023EF3CF0036A033A89500318EF0B031847
:10785000896E01BA2EEF3CF032EF3CF0036A032A46
:1078600033EF3CF0036A033A034689500318DF0BF9
:107870000318896E01B83FEF3CF043EF3CF0036A18
:10788000032A44EF3CF0036A8A500318FE0B0318E6
:107890008A6E01B64EEF3CF052EF3CF0036A032AC9
:1078A00053EF3CF0036A03468A500318FD0B03189C
:1078B0008A6E01B45EEF3CF062EF3CF0036A032A8B
:1078C00063EF3CF0036A034603468A500318FB0B40
:1078D00003188A6E01B26FEF3CF073EF3CF0036A5D
:1078E000032A74EF3CF0036A0346034603468A50BA
:1078F0000318F70B03188A6E01B081EF3CF085EF97
:107900003CF0036A032A86EF3CF0036A033A8A508C
:107910000318EF0B03188A6E1200000E166E000E8D
:10792000156E000E0F6E000E0E6E99EF3CF0084AB9
:10793000092A010E146E08C0F6FF09C0F7FF0800FF
:10794000F550200AD8B4A7EF3CF0A9EF3CF0C6EF01
:107950003CF0F70E0A6EFF0E0B6E08C0F6FF09C072
:10796000F7FF0800F5500C6E0D6A0A500C260B50FC
:107970000D220D5009E1050E0C5CD8A0C2EF3CF0C1
:10798000C4EF3CF0C6EF3CF0000E146E14C010F0D3
:10799000116A10501110D8A4D0EF3CF0D2EF3CF097
:1079A00097EF3CF0DCEF3CF0000E0F6E010E0E6E18
:1079B000084A092A11EF3DF008C0F6FF09C0F7FF99
:1079C0000800F5500A6E0B6A0B50000AD8B4EBEFB2
:1079D0003CF011EF3DF00A502B0AD8B4D8EF3CF040
:1079E000060AD8B4D4EF3CF011EF3DF015C001F019
:1079F00016C002F0000E046E0A0E036E8EEC37F015
:107A000008C0F6FF09C0F7FF0800F550015E000E40
:107A1000025A300E0124156E000E0220166ED8EFA9
:107A20003CF0D00E0A6EFF0E0B6E08C0F6FF09C0C8
:107A3000F7FF0800F5500C6E0D6A0A500C260B502B
:107A40000D220D500AE10A0E0C5CD8A02AEF3DF081
:107A50002DEF3DF0010E2EEF3DF0000E126E136A79
:107A600012501310D8A437EF3DF039EF3DF0F6EF88
:107A70003CF00E500F10D8A440EF3DF042EF3DF027
:107A800050EF3DF015C00AF016C00BF00A1E0B1E99
:107A90000A4A0B2A0AC008F00BC009F054EF3DF067
:107AA00015C008F016C009F01200000165BF5BEFB9
:107AB0003DF05DEF3DF05EEF3DF0669365BF6BEF2F
:107AC0003DF0655106E16405D8B069EF3DF06BEF1C
:107AD0003DF071EF3DF0000E2F6E010E2E6E75EF32
:107AE0003DF064C02EF065C02FF062C030F063C07E
:107AF00031F01EC032F01FC033F020C034F021C07E
:107B000035F022C036F023C037F024C038F025C04D
:107B100039F0000E3B6E1F0E3A6E000E876F07EFB6
:107B20003EF03A06D8A03B06680E3A24D96E000E05
:107B30003B20DA6E32C001F033C002F034C003F0F3
:107B400035C004F036C005F037C006F038C007F085
:107B500039C008F00A0E096E000E0A6E000E0B6E98
:107B6000000E0C6E000E0D6E000E0E6E000E0F6EEF
:107B7000000E106E88EC3AF001C026F002C027F02B
:107B800003C028F004C029F005C02AF006C02BF07D
:107B900007C02CF008C02DF02650300FDF6E2E06E7
:107BA000D8A02F063006D8A0310632C001F033C06D
:107BB00002F034C003F035C004F036C005F037C021
:107BC00006F038C007F039C008F00A0E096E000E42
:107BD0000A6E000E0B6E000E0C6E000E0D6E000E87
:107BE0000E6E000E0F6E000E106EF0EC3AF001C03B
:107BF00032F002C033F003C034F004C035F005C0E9
:107C000036F006C037F007C038F008C039F03A50F7
:107C10003B10D8B40EEF3EF010EF3EF041EF3EF0D7
:107C200032503310341035103610371038103910E8
:107C3000D8A41DEF3EF01FEF3EF091EF3DF02FBEB8
:107C40002CEF3EF02F5006E12E04D8B02AEF3EF084
:107C50002CEF3EF091EF3DF031BE37EF3EF031506A
:107C600008E13004D8A037EF3EF039EF3EF041EFA5
:107C70003EF0000166B33FEF3EF041EF3EF091EF82
:107C80003DF01CC011F01DC012F0680E3A24136EB6
:107C9000000E3B20146E30C015F031C016F0C0EC61
:107CA00039F011C01CF012C01DF012003EC0D9FF07
:107CB0003FC0DAFFDECFF6FFDDCFF7FF0800F5505B
:107CC000250AD8A466EF3EF068EF3EF0E4EF3FF0FF
:107CD0003EC0D9FF3FC0DAFFDE2A000EDD22000ED3
:107CE0000001636F000E626F62C066F063C067F0F0
:107CF00064696569000E4F6E000E4E6ECBEF3EF06C
:107D0000000166813EC0D9FF3FC0DAFFDE2A000EC7
:107D1000DD22CBEF3EF00001668382EF3EF00001F2
:107D2000668582EF3EF00001668782EF3EF000013B
:107D3000668982EF3EF0000E4F6E010E4E6ECBEF65
:107D40003EF03EC0D9FF3FC0DAFFDECFF6FFDDCF09
:107D5000F7FF0800F550426E436A4350000AD8B45A
:107D6000B4EF3EF09BEF3EF04250200AD8B493EFC0
:107D70003EF0030AD8B497EF3EF0080AD8B48FEF6C
:107D80003EF0060AD8B480EF3EF01D0AD8B48BEF5F
:107D90003EF09BEF3EF04E504F10D8B4D2EF3EF085
:107DA000D4EF3EF0A1EF3EF0000166A1DAEF3EF025
:107DB000DCEF3EF0DDEF3EF066933EC0D9FF3FC002
:107DC000DAFFDECFF6FFDDCFF7FF0800F5502A0A15
:107DD000D8A4EDEF3EF0EFEF3EF018EF3FF03EC0DD
:107DE000D9FF3FC0DAFFDE2A000EDD2240C0D9FFF6
:107DF00041C0DAFFDFCF42F0020EDE26DFCF43F0D4
:107E0000000EDD2242C0D9FF43C0DAFFDECF62F0B0
:107E1000DDCF63F063BF11EF3FF00FEF3FF05BEF9B
:107E20003FF06681626D631FD8B0632B5BEF3FF05C
:107E30003EC0D9FF3FC0DAFFDECF08F0DDCF09F04A
:107E40008DEC3CF008C062F009C063F02FEF3FF00A
:107E50003EC0D9FF3FC0DAFFDE2A000EDD22D00E81
:107E6000426EFF0E436E3EC0D9FF3FC0DAFFDECF49
:107E7000F6FFDDCFF7FF0800F550446E456A42502B
:107E800044264350452245500AE10A0E445CD8A0DE
:107E90004CEF3FF04FEF3FF0010E50EF3FF0000E80
:107EA000506E516A50505110D8A459EF3FF05BEF1B
:107EB0003FF028EF3FF03EC0D9FF3FC0DAFFDECFF2
:107EC000F6FFDDCFF7FF0800F550750AD8A46BEF79
:107ED0003FF06DEF3FF0AEEF3FF03EC0D9FF3FC047
:107EE000DAFFDE2A000EDD2240C0D9FF41C0DAFFF2
:107EF000DFCF42F0020EDE26DFCF43F0000EDD22A0
:107F000042C0D9FF43C0DAFFDECF44F0DDCF45F0F9
:107F100044C046F045C047F0486A496A4A6A4B6A1D
:107F20004C6A4D6A3CC01CF03DC01DF046C01EF0BE
:107F300047C01FF048C020F049C021F04AC022F0DD
:107F40004BC023F04CC024F04DC025F055EC3DF063
:107F50001CC03CF01DC03DF0FFEF3FF03EC0D9FF1C
:107F60003FC0DAFFDECFF6FFDDCFF7FF0800F550A8
:107F7000250AD8A4BEEF3FF0C0EF3FF0D7EF3FF0A7
:107F80003EC0D9FF3FC0DAFFDE2A000EDD22000E20
:107F9000026E250E016E3CC003F03DC004F023ECE0
:107FA0003AF0000E3D6E010E3C6EFFEF3FF03EC01A
:107FB000D9FF3FC0DAFFDE2A000EDD22000E3D6E43
:107FC000000E3C6EFFEF3FF03EC0D9FF3FC0DAFF2E
:107FD000DECFF6FFDDCFF7FF0800F550016E026A35
:107FE0003CC003F03DC004F023EC3AF03EC0D9FFA2
:107FF0003FC0DAFFDE2A000EDD22D1EF3FF0120093
:020000040020DA
:08000000FFFFFFFFFFFFFFFF00
:020000040030CA
:0E000000240E3F1EFF8181FF0FC00FE00F4056
:00000001FF
